:020000040800F2
:10000000500B0020010100084D190008C51300081D
:10001000491900089D0C0008B531000800000000D7
:10002000000000000000000000000000331B00087A
:10003000F70E000800000000291A0008911C0008B3
:100040001B0100081B0100081B0100081B01000820
:100050001B0100081B0100081B0100081B01000810
:100060001B0100081B010008850F0008D10C0008C7
:100070001B0100081B0100081B0100081B010008F0
:100080001B0100081B0100081B0100081B010008E0
:100090001B0100081B0100081B0100081D100008BF
:1000A0001B0100081B0100081B0100081B010008C0
:1000B0001B010008492E00081B0100081B01000855
:1000C0001B0100081B0100081B0100081B010008A0
:1000D0001B0100081B0100081B0100081B01000890
:1000E000F90E00081B0100081B010008DFF80CD006
:1000F00000F03CFC00480047793B0008500B002012
:100100000648804706480047FEE7FEE7FEE7FEE7B1
:10011000FEE7FEE7FEE7FEE7FEE7FEE7B91C0008A4
:10012000ED000008D2B201E000F8012B491EFBD21D
:1001300070470022F6E710B513460A4604461946F2
:10014000FFF7F0FF204610BDF0B480EA0102D40FA3
:100150004200B2EB410F02D20246084611464A0065
:1001600042D0C30DDDB2C1F3C752AD1A202D35DA2E
:10017000C1F3160141F4000204B15242C5F1200658
:1001800002FA06F12A411044B3EBD05F23D0C4B188
:10019000012DA0EBC35009DCF0BC4FF0004202EA95
:1001A000C352DBB200F5000000F0CBBA400000F112
:1001B000807000EBC350A0F1807040EAD17049001C
:1001C00009E0490841EAC071A0EBC35000F5000006
:1001D000400800EBC350F0BC00F0AABA6142012213
:1001E00002EB4101001BF6E7F0BC704781F00041D3
:1001F000AAE780F00040A7E780EA010210B502F00C
:100200000043400022D04A001FD0010E01EB1261D2
:10021000C0F35600C2F3560240F4000042F400025C
:10022000A0FB022000047F39140400D0401C50EAD7
:10023000124001D44000491EC2B20C0604EBD0109B
:10024000401C4008802A02D003E0002010BD20F0AE
:100250000100002900DA0020184310BD30B480EA04
:10026000010202F0004530F0004221F0004013D0BE
:1002700090B1C30DD40DC2F31601C0F31600E41AF9
:1002800041F4000140F400027D34914201D3641C2A
:1002900000E04900002C02DA30BC002070474FF427
:1002A00000000023914201D3891A034340084FEA1A
:1002B0004101F7D151B1914202D14FF0004105E027
:1002C00002D24FF0010101E06FF0010103EBC450D5
:1002D000284430BC00F02CBA2DE9FE4F804681EA5C
:1002E0000300C00F0C46009021F0004123F00045B0
:1002F000B8EB0200A94105D24046214690461C4673
:100300000B46024623F00040104347D0270DC7F3A9
:100310000A00C3F30A510290401A019040286BDA98
:10032000C3F3130040F4801B0098924620B10023D1
:10033000D2EB030A63EB0B0B01985946C0F1400264
:10034000504600F0D4F906460D4650465946019AEB
:1003500000F0DCF910EB08006141002487EA11523B
:1003600084EAE7731A4340D0009A62B3019A012AE3
:100370004FEA075215DC001B61EB02014FF000420F
:1003800002EA0752CDE90042001C41F580113246D5
:100390002B4600F013FA03B0BDE8F08F404621462B
:1003A000F9E7001B61EB0201001C41F58013001806
:1003B0005B412018A2F5001747EB030140EAD57016
:1003C000B6196D4111E06D084FEA360645EAC07571
:1003D0004FEA0752001B61EB0201001C41F580113E
:1003E00049084FEA30000019514132462B4603B00C
:1003F000BDE8F04F00F0D3B900980122400000237F
:10040000D0EB020263EBE073009821464FEAE07400
:10041000B8EB000061EB0401E9E783F000435BE720
:1004200081F0004158E72DE9F04D81EA030404F022
:10043000004B21F0004514464FF0000A23F0004124
:1004400050EA050220D054EA01021DD0C5F30A5734
:100450000246C5F31303C1F31300C1F30A5640F477
:10046000801543F48013A7EB0608101BD64608F24C
:10047000FD3873EB050002D308F1010801E0921882
:100480005B41B8F1000F03DA00200146BDE8F08DB2
:1004900000204FF48011064684460EE0171B73EBD4
:1004A000050705D3121B63EB050306434CEA010C59
:1004B00049084FEA300092185B4150EA0107EDD13C
:1004C00052EA030012D082EA040083EA05010843DD
:1004D00005D0101BAB4106D20122002306E000220A
:1004E0004FF0004302E06FF0010253101AEB0600D8
:1004F0004CEB085110EB0A0041EB0B01BDE8F04D4D
:1005000000F04DB9C10F80EAE0700844CA07962395
:10051000002100F016B996230022114600F011B90F
:1005200000F0004220F00040C10DC0F3160040F47E
:1005300000007F2901DA00207047962903DCC1F111
:100540009601C84001E096398840002AF4D0404224
:10055000704720F00040C10DC0F3160040F40000C9
:100560007F2901DA00207047962903DCC1F196014A
:10057000C840704796398840704700F0004230F01C
:1005800000400AD0C10D01F56071C0F3160042EAC7
:100590000151C208400711437047002001467047CF
:1005A00030B5041E71F1000404DB4FF000444042FA
:1005B00064EB0101141E73F1000405DB1C464FF0CF
:1005C0000043524263EB04038B4208BF824230BDBA
:1005D00030B5041E71F1000404DB4FF000444042CA
:1005E00064EB0101141E73F1000405DB1C464FF09F
:1005F0000043524263EB0403994208BF904230BD6E
:1006000001F0004330B421F0004150EA010206D06D
:100610000A0DA2F56072C1F31301002A02DC30BC9E
:1006200000207047440F44EAC104C100E01830BC08
:1006300000EBC25000F07CB8002801DBC0F10040A4
:10064000002901DBC1F1004181427047002801DB34
:10065000C0F10040002901DBC1F100418842704730
:1006600030B50B46014600202022012409E021FA82
:1006700002F59D4205D303FA02F5491B04FA02F57F
:100680002844151EA2F10102F1DC30BD2DE9F05F16
:100690000546002092469B468846064681464024F1
:1006A0001BE0284641464746224600F071F9534672
:1006B0005A46C01A914110D311461846224600F0FE
:1006C00016F82D1A67EB01084F462246012000213B
:1006D00000F00DF817EB00094E41201EA4F10104B3
:1006E000DFDC484631462A464346BDE8F09F202AD3
:1006F00004DB203A00FA02F1002070479140C2F179
:10070000200320FA03F3194390407047202A06DBA8
:10071000CB17203A41FA02F043EAE07306E041FACF
:1007200002F3D040C2F120029140084319467047BD
:100730000029A8BF7047401C490008BF20F00100F5
:10074000704710B4B0FA80FC00FA0CF050EA0104D3
:1007500004BF10BC704749B1CCF1200421FA04F465
:1007600011FA0CF118BF012121430843A3EB0C013E
:10077000CB1D4FEA00614FEA102042BF002010BCA1
:10078000704700EBC35010440029A4BF10BC704751
:10079000401C490008BF20F0010010BC704710B594
:1007A000141E73F1000408DA401C41F10001921894
:1007B0005B411A4301D120F0010010BD2DE9F04D3D
:1007C00092469B4611B1B1FA81F202E0B0FA80F292
:1007D00020329046FFF78BFF04460F4640EA0A009E
:1007E00041EA0B0153465A46084313D0114653EAD7
:1007F000010019D0C8F14002504600F0C9F8054682
:100800000E46504659464246FFF771FF084305D051
:10081000012004E020463946BDE8F08D0020054364
:1008200046EAE0762C4337430A986305E40AA0EBD6
:1008300008000022FD0A44EA47540A3002D500208D
:100840000146E9E7010510196941DDE9084500198C
:100850006941BDE8F04DA2E72DE9FE4F81EA0304AE
:1008600004F0004421F0004100944FF0000B23F00D
:10087000004350EA01045ED052EA03045BD0C3F3A4
:100880000A54C1F30A552C44A4F2F3340194A0FB9A
:100890000254C1F3130141F48011C3F3130343F471
:1008A000801301FB024400FB034E840A970A44EACA
:1008B000815447EA8357A4FB076802958D0A05FB1C
:1008C00007854FEA932C04FB0C542705029D4FEA41
:1008D000065847EA1637B5EB08056EEB070C870E8E
:1008E000920E47EA811742EA8312A7FB0201B6EB98
:1008F0000B0164EB00042B0D43EA0C335E1844EB50
:100900001C50DA465146E7FB0201C5F313044FEAD7
:100910000B3343EA14534FEA0432019C43EA0603C3
:10092000A4F10C040294009CCDE900B4FFF746FF4B
:1009300003B0BDE8F08F00200146F9E7C1F30A5289
:10094000C1F3130140F2FF3341F480119A4202DAFD
:1009500000200146704740F233439A42A2F23342EC
:1009600002DC524200F014B8FFF7C1BE064C074D3E
:1009700006E0E06840F0010394E80700984710346F
:10098000AC42F6D3FFF7B6FBF85D0008185E00082E
:10099000202A04DB203A21FA02F00021704721FAD4
:1009A00002F3D040C2F1200291400843194670473B
:1009B00021B1826842F00102826003E0826822F085
:1009C00001028260704721B1826842F480728260C5
:1009D00003E0826822F480728260704700B58BB0B9
:1009E000174800F0A5F90121084601F02BF814483A
:1009F00000F09EF9134800901348019000200290E7
:100A00004FF49670039000200490802005904000E1
:100A10000690800007902020089000020990002096
:100A20000A906946064800F048FA0121044800F09F
:100A300073F901220221024800F036FA0BB000BD22
:100A4000080002404C240140F804002008B54FF48F
:100A5000A06000F0DFFF0B208DF8000000208DF873
:100A600001008DF8020001208DF80300684600F0B7
:100A700099FF08BD10B500F0B5F800F0C5F8FFF714
:100A8000ADFFFFF7E3FF10BD014600208A6802F0CA
:100A900004020AB1012000E0002070470146002056
:100AA0008A6802F008020AB1012000E000207047C5
:100AB00030B502460020002350680F4C20400D79CD
:100AC0000C6844EA05242043506090680B4C204099
:100AD000D1E902542C434D7944EA45042043906007
:100AE000D06A20F470000C7C641EE4B2234340EA18
:100AF0000350D06230BD0000FFFEF0FFFDF7F1FFB4
:100B0000F0B504460D4600200021092D11DDE068F6
:100B1000A5F10A0606EB4607072606FA07F1884301
:100B2000A5F10A0606EB460603FA06F10843E06063
:100B30000CE0206905EB4507072606FA07F1884314
:100B400005EB450603FA06F108432061072A0FDA90
:100B5000606B561E06EB86071F2606FA07F18843D0
:100B6000561E06EB860605FA06F10843606322E08E
:100B70000D2A0FDA206BD61F06EB86071F2606FA12
:100B800007F18843D61F06EB860605FA06F10843EF
:100B9000206310E0E06AA2F10D0606EB86071F262F
:100BA00006FA07F18843A2F10D0606EB860605FA60
:100BB00006F10843E062F0BD816841F00801816000
:100BC000704721B1826842F4A002826003E082682B
:100BD00022F4A00282607047816841F004018160C4
:100BE0007047000008B50121042000F04BFF0820E9
:100BF000ADF8000000208DF803006946014800F0C0
:100C0000EFFA08BD0008014000B585B00121480297
:100C100000F038FF002000908DF8040001208DF8CE
:100C200005004FF4602002900020039001208DF811
:100C3000100069461848FFF73BFF4FF4404000F0B2
:100C4000F5FE0723012203211348FFF759FF012175
:100C50001148FFF7B8FE01210F48FFF7A9FE0E4823
:100C6000FFF7AAFF00BF0C48FFF718FF0028FAD1D2
:100C70000948FFF7B1FF00BF0748FFF705FF00284D
:100C8000FAD101210448FFF79EFE01210248FFF737
:100C900098FF05B000BD00000024014000BFFEE742
:100CA00010B50446012C02D0022C0CD105E04FF403
:100CB0000041064800F073FB06E04FF40041034892
:100CC00000F06DFB00E000BF00BF10BD0010014050
:100CD00010B5022000F0D2F8012809D10021054802
:100CE00000F01AF8022000F009F80120024908700B
:100CF00010BD0000080002403000002000F08051CC
:100D000011B10349086001E00249486070470000E2
:100D1000040402400000024021B1026842F00102D6
:100D2000026004E002684FF6FE731A4002607047EA
:100D300001684FF6FE7211400160002101604160C0
:100D40008160C1604B49884208D14A4908394968E5
:100D500041F00F01474A083A51608AE04549143191
:100D6000884208D143490839496841F0F001414AB5
:100D7000083A51607DE03F492831884208D13D4919
:100D80000839496841F470613A4A083A516070E0A4
:100D900038493C31884208D136490839496841F41C
:100DA0007041344A083A516063E032495031884218
:100DB00008D130490839496841F470212D4A083A70
:100DC000516056E02B496431884208D129490839DD
:100DD000496841F47001274A083A516049E02549C1
:100DE0007831884208D123490839496841F0706157
:100DF000204A083A51603CE01F49884206D1011F51
:100E0000096841F00F01021F116032E01A491431E4
:100E1000884208D11849091F096841F0F001164AB3
:100E2000121F116025E014492831884208D1124967
:100E3000091F096841F470610F4A121F116018E020
:100E40000D493C31884208D10B49091F096841F41A
:100E50007041094A121F11600BE007495031884266
:100E600007D10549091F096841F47021024A121F80
:100E7000116070470800024008040240014600204B
:100E8000002201F0805313B1054B1A6801E0054BB5
:100E90001A6802EA01030BB1012000E0002070474C
:100EA00000040240000002401AB103680B430360D3
:100EB00002E003688B430360704710B500220268AC
:100EC00047F6F0739A430C6A8B6823430C692343FB
:100ED0004C6923438C692343CC6923434C6A2343E5
:100EE0008C6A23431A430260CB6843600B688360BB
:100EF0004B68C36010BD704710B54FF4005000F050
:100F0000AFF878B1052002F0D9FD4FF400511B482D
:100F100000F03AFA10B90120194948704FF4005016
:100F200000F098F84FF4004000F09AF878B10520EE
:100F300002F0C4FD4FF40041104800F025FA10B94A
:100F400002200F4948704FF4004000F083F84FF43E
:100F5000804000F085F878B1052002F0AFFD4FF435
:100F60008041064800F010FA10B903200449487087
:100F70004FF4804000F06EF810BD0000000C0140FE
:100F80003000002010B5102000F06AF800283BD097
:100F900008211E4800F0F8F9C8B9052002F08EFDBE
:100FA00000201B4908700821184800F0EDF940BBEB
:100FB00018480078401C1749087008460078012836
:100FC0001FDB0020087006201349487019E0052037
:100FD00002F074FD00200F49087008210B4800F052
:100FE000D3F901280DD10A480078401C084908703F
:100FF00008460078012804DB002008700520064917
:101000004870102000F026F810BD0000000C0140D0
:101010001B0000201A0000203000002010B54FF403
:10102000007000F01DF878B1052002F047FD4FF484
:101030000071064800F0A8F910B90420044948706E
:101040004FF4007000F006F810BD0000000C0140E5
:10105000300000200149086070470000140401407E
:10106000014600200022074B1B6803EA0102054BE2
:1010700014331B680B4013B10AB1012000E00020BB
:101080007047000000040140002123498279002AB2
:101090003AD00A46126803689A430B461A600A1D42
:1010A000126803689A430B1D1A60027911440A689A
:1010B00003681A430A60184A0832126803689A43A0
:1010C000154B08331A601A1D126803689A43124BB5
:1010D0000C331A604279102A0ED11A1F1268036865
:1010E0001A430D4B08331A601A1D126803681A431D
:1010F000094B0C331A600DE00749427911440A6824
:1011000003681A430A6005E0027911440A6803681B
:101110009A430A60704700000004014008B50121AD
:10112000042000F0AFFC0420ADF8000018208DF87A
:10113000030003208DF802006946024800F050F8D1
:1011400008BD00000008014008B50121042000F09E
:1011500099FC4020ADF8000028208DF80300694676
:10116000034800F03DF84021014800F016F908BDA1
:101170000008014008B54FF4E06000F04BFC1D2072
:101180008DF8000000208DF8010003208DF802008A
:1011900001208DF80300684600F004FC08BD000043
:1011A00030B500228B071C0F0F2303FA04F20B4B00
:1011B0008C1053F824309343084C8D1044F825309C
:1011C00023468C1053F824308C07240F00FA04F4C3
:1011D0002343024C8D1044F8253030BD08000140F7
:1011E0002DE9F041024600250026002000230024BE
:1011F000002791F803C00CF00F0591F803C00CF024
:10120000100CBCF1000F03D091F802C04CEA0505A8
:1012100091F800C0BCF1000F31D0146800202BE021
:101220004FF0010C0CFA00F3B1F800C00CEA030611
:101230009E4220D183004FF00F0C0CFA03F7BC4301
:1012400005FA03FC4CEA040491F803C0BCF1280F32
:1012500006D14FF0010C0CFA00FCC2F814C00AE0F1
:1012600091F803C0BCF1480F05D14FF0010C0CFA06
:1012700000FCC2F810C0401C0828D1D31460B1F89B
:1012800000C0BCF1FF0F34DD546800202EE000F1F7
:10129000080C4FF0010808FA0CF3B1F800C00CEA92
:1012A00003069E4221D183004FF00F0C0CFA03F786
:1012B000BC4305FA03FC4CEA040491F803C0BCF1FA
:1012C000280F05D100F1080C08FA0CF8C2F81480B8
:1012D00091F803C0BCF1480F07D100F1080C4FF0A2
:1012E000010808FA0CF8C2F81080401C0828CED378
:1012F0005460BDE8F0810000F0B50A4600230024E8
:101300000021002500F00046B6F1004F02D11D4E2D
:10131000F16901E01B4E7168C0F3034583B200F42C
:101320004016B6F5401F08D121F07061154E766861
:1013300026F07066134F7E6012E000F48016B6F55A
:10134000801F06D1032606FA05F4A14341F070611F
:1013500006E0460D360103FA06F6B14341F070612E
:1013600022B1460D360103FA06F6314300F000467D
:10137000B6F1004F02D1034EF16101E0014E716000
:10138000F0BD0000000001400246002093680B40C1
:101390000BB1012000E000207047416170470161FE
:1013A0007047000001460020B1F5967F00DD002166
:1013B000034A32F811000022014B23F81120704734
:1013C000F804002000BFFEE70EB50121092000F05F
:1013D00059FB00F0BCFA01212748FFF78DFF1020D0
:1013E000ADF8080048208DF80B0002A92348FFF74C
:1013F000F7FE04210120FFF7D3FE1020009000200B
:101400008DF8040008208DF8050001208DF80600F5
:101410006846FFF739FE1020FFF71CFE0820ADF8E4
:10142000080048208DF80B0002A91448FFF7D8FEE9
:101430004FF40070ADF8080048208DF80B0002A9A9
:101440000E48FFF7CDFE09210120FFF7A9FE4FF45A
:101450000070009000208DF8040008208DF8050031
:1014600001208DF806006846FFF70EFE4FF400706D
:10147000FFF7F0FD0EBD000000023000000C01403F
:1014800000B587B0FFF760FE0121022000F0EAFA04
:101490004FF6FF70ADF814004720ADF810000020A3
:1014A000ADF81600ADF812008DF8180004A9124826
:1014B00001F02EFE0020ADF80400ADF8060001207A
:1014C000ADF808000020ADF80A00ADF80C0001A945
:1014D000094801F031FDFFF74DFE0321064801F0F8
:1014E00005FD01220321044801F07CFD0121024891
:1014F00001F002FD07B000BD000400400EB501215F
:10150000092000F0BFFA0121112000F0BBFA0121EF
:10151000112000F0B7FA00F01AFA4FF40050ADF8BD
:10152000080048208DF80B0002A92F48FFF758FE4D
:101530000D210120FFF734FE4FF4005000900020F1
:101540008DF804000C208DF8050001208DF80600B0
:101550006846FFF799FD4FF40050FFF77BFD4FF40D
:101560000040ADF8080048208DF80B0002A91E4885
:10157000FFF736FE0F210120FFF712FE4FF4004067
:10158000009000208DF804000C208DF8050001204B
:101590008DF806006846FFF777FD4FF40040FFF72F
:1015A00059FD4FF48040ADF8080048208DF80B003D
:1015B00002A90D48FFF714FE0E210120FFF7F0FDF0
:1015C0004FF48040009000208DF804000C208DF82E
:1015D000050001208DF806006846FFF755FD4FF421
:1015E0008040FFF737FD0EBD000C014008B501211A
:1015F000102000F047FA4FF44040ADF800001020F2
:101600008DF8030003208DF8020069460448FFF7B7
:10161000E7FD0120FFF744FB0220FFF741FB08BD77
:1016200000100140002101700721816000214170FC
:10163000817001614FF47A7181804910C180490045
:10164000C16000214161704730B587B005460C4646
:10165000FFF764FD0121084600F004FAA8B2ADF8D6
:1016600014004720ADF810000020ADF81600ADF8CA
:1016700012008DF8180004A94FF0804001F048FDD9
:101680007020ADF800000120ADF802000220ADF896
:101690000800A0B2ADF8060069464FF0804001F0A6
:1016A000ABFC0821C80601F0F7FC07B030BD000014
:1016B00000B587B00121080300F0E4F901210420FE
:1016C00000F0E0F90121082000F0DCF901210846D2
:1016D00000F0D8F98020ADF8040010208DF8070044
:1016E00003208DF8060001A92B48FFF779FD802122
:1016F0002948FFF754FE2020ADF8040018208DF88B
:10170000070003208DF8060001A92448FFF768FDB3
:101710004020ADF8040004208DF8070003208DF868
:10172000060001A91D48FFF75BFD8020ADF804000D
:1017300018208DF8070003208DF8060001A917482E
:10174000FFF74EFD0021164800F0C0F90020ADF86B
:1017500008004FF48270ADF80A000020ADF80C00CC
:101760000220ADF80E000120ADF810004002ADF8E7
:1017700012000820ADF814000020ADF81600072074
:10178000ADF8180002A9064800F0B5F90121044897
:1017900000F09CF907B000BD000C014000080140BA
:1017A000003001402DE9F047044600256078072805
:1017B00071D2DFE800F0BA042135B9719500E088F4
:1017C000FEF7A9FE8046E068FEF7A5FE81465B496C
:1017D000FEF712FD07464146FEF7B6FC0646FEF749
:1017E000B8FEE080E088E168884201D90020E0800E
:1017F000E08800F01BFA99E0A07848B90120A070B9
:10180000E08800F013FA0121880701F075FB06E07B
:101810000020A07000F00AFA0A2002F04FF985E0DB
:10182000E068FEF778FE80460021FEF78DFC064654
:10183000E088FEF770FE07463146FEF70FFD0546CD
:10184000E068FEF768FE07464FF08041FEF706FDB0
:101850000646FEF77EFEE060E068FA2802D24FF40A
:101860007A70E060E0683649B1FBF0F0A080E06893
:10187000FEF751FE07462946FEF7BEFC0646FEF778
:1018800068FEE080E08800F0D1F9E168481E00F0D1
:10189000C5F900254AE048E0A068C01E052813D21B
:1018A000DFE800F00306090C0F000420A0600EE042
:1018B0000520A0600BE00620A06008E00720A060E3
:1018C00005E00720A06002E00720A06000BF00BF85
:1018D000A068C3B2012203211A48FFF711F925E0DD
:1018E000A068C01E052813D2DFE800F00F0C09061F
:1018F00003000620A0600EE00520A0600BE004209D
:10190000A06008E00320A06005E00320A06002E0E2
:101910000320A06000BF00BFA068C3B20122032162
:101920000848FFF7EDF801E000E000BF00BF00202D
:101930006070204600F0D4FEBDE8F087CDCC4C3D71
:1019400040420F000024014000BFFEE7704708B589
:101950004FF4C06000F05EF828208DF800000120F0
:101960008DF801008DF802008DF80300684600F044
:1019700019F828208DF80000684600F013F8282098
:101980008DF80000684600F00DF80A208DF8000080
:10199000684600F007F817208DF80000684600F050
:1019A00001F808BD70B5002100230F22C47804B3EC
:1019B000154C246804F4E064C4F5E064210AC1F124
:1019C0000403CA40447804FA03F1847814402143A4
:1019D00009010E4C0678A155047804F01F05012476
:1019E000AC4005786D11AD0005F1E025C5F800416A
:1019F00009E0047804F01F050124AC40044D06788A
:101A0000761145F8264070BD0CED00E000E400E0E2
:101A100080E100E002490143024A11607047000082
:101A20000000FA050CED00E07047000001460020C0
:101A3000034A506820F4404008435060704700005B
:101A40000010024029B1064A52690243044B5A6110
:101A500004E0034A52698243014B5A617047000017
:101A60000010024029B1064AD2690243044BDA61F0
:101A700004E0034AD2698243014BDA6170470000F7
:101A80000010024029B1064A92690243044B9A6150
:101A900004E0034A92698243014B9A617047000057
:101AA0000010024010B5044600BF0221064800F0B5
:101AB00019F80028F9D004488481008900F0010059
:101AC0000149088110BD00000030014021B10288A9
:101AD00042F04002028004E002884FF6BF731A40D1
:101AE000028070470246002013890B400BB1012091
:101AF00000E00020704710B50022028802F4415235
:101B00000B884C8823438C882343CC8823430C893F
:101B100023434C8923438C892343CC8923431A4391
:101B20000280838B4FF2FF74234083830B8A0382EE
:101B300010BD704710B500F001F810BD0CB50020C5
:101B4000019000903348006840F4803031490860CB
:101B500000BF3048006800F4003000900198401C3D
:101B60000190009818B90198B0F5A06FF1D12948FB
:101B7000006800F4003010B10120009001E0002066
:101B800000900098012843D12348006840F01000DD
:101B9000214908600846006820F0030008600846F4
:101BA000006840F0020008601A484068194948601F
:101BB0000846406848600846406840F480604860D5
:101BC0000846406820F47C1048600846406840F4AD
:101BD000E81048600846006840F08070086000BF68
:101BE0000C48006800F000700028F9D009484068EF
:101BF00020F00300074948600846406840F00200B2
:101C0000486000BF0348406800F00C000828F9D184
:101C10000CBD0000001002400020024010B5044638
:101C2000A1B24FF0804001F040FA10BD10B504465B
:101C300021464FF0804001F03AFA10BD30B5014620
:101C4000B1F1807F01D3012030BD21F07F40401EE3
:101C50004FF0E022506150170F22002807DA1307D7
:101C60001D0E094B00F00F04241F1D5503E0130740
:101C70001C0E064B1C5400BF00204FF0E022906168
:101C8000072010610020DFE718ED00E000E400E02D
:101C90007047000010B5064800680649B0FBF1F433
:101CA0002046FFF7CBFF08B100BFFEE710BD0000E4
:101CB00000000020A086010010B51348006840F025
:101CC00001001149086008464068104908400E4963
:101CD0004860084600680E4908400B4908600846FD
:101CE000006820F4802008600846406820F4FE0068
:101CF00048604FF41F008860FFF71CFF4FF0006042
:101D00000449086010BD0000001002400000FFF808
:101D1000FFFFF6FE08ED00E02DE9F04107460C4616
:101D200015461E462A2000F057FF384600F030FFC7
:101D3000284600F02DFF2B2000F04EFF204600F03B
:101D400027FF304600F024FF2C2000F045FFBDE8BF
:101D5000F0812DE9FF4F85B0074688464FF0000916
:101D6000002004908246834600240025002603902C
:101D70000290019000900798C41B0898A0EB0805FA
:101D80000197CDF80080002C02DD0120039007E0D0
:101D900014B90020039003E04FF0FF300390644239
:101DA000002D02DD0120029007E015B9002002900D
:101DB00003E04FF0FF3002906D42AC4201DD264659
:101DC00000E02E46002004902DE0009A91B2019A86
:101DD00090B2129A00F02EF84FF01E090AE0019915
:101DE000491C88B20022494600F024F809F101009C
:101DF0001FFA80F9B9F1500FF1DBA244AB44B245B0
:101E000005DDAAEB060A0399019808440190B34541
:101E100005DDABEB060B029900980844009004988E
:101E2000401C80B20490711C04988842CDDB09B03C
:101E3000BDE8F08F70B504460D4616462B46224687
:101E400029462046FFF768FF304600F0A1FE70BD2E
:101E50002DE9F04706460F4614461D46DDF820A042
:101E60004FF00008C146681E83B2601E82B2394638
:101E70003046FFF751FFB8460EE0B14606E0504647
:101E800000F086FE09F101001FFA80F9A145F6DB9A
:101E900008F101001FFA80F8A845EEDBBDE8F087E5
:101EA00008B501210820FFF7EDFD2020ADF8000066
:101EB00003208DF8020010208DF8030069461348B6
:101EC000FFF78EF901210820FFF7DCFD4FF4807049
:101ED000ADF8000003208DF8020010208DF80300FB
:101EE00069460A48FFF77CF901210820FFF7CAFD7F
:101EF0004020ADF8000003208DF8020010208DF87E
:101F0000030069460148FFF76BF908BD000C01406A
:101F100010B5FFF7C5FFFFF7CBFB20217B48FFF78C
:101F20003CFA642001F0CAFD20217848FFF737FA17
:101F3000642001F0C3FD4FF480717448FFF72FFA5D
:101F4000642001F0BBFD112000F046FE782001F076
:101F5000B5FDB12000F040FE052000F02DFE3C2034
:101F600000F02AFE3C2000F027FEB22000F034FEF4
:101F7000052000F021FE3C2000F01EFE3C2000F079
:101F80001BFEB32000F028FE052000F015FE3C20CB
:101F900000F012FE3C2000F00FFE052000F00CFEC9
:101FA0003C2000F009FE3C2000F006FEB42000F0CA
:101FB00013FE032000F000FEC02000F00DFE2820DC
:101FC00000F0FAFD082000F0F7FD042000F0F4FD19
:101FD000C12000F001FEC02000F0EEFDC22000F0A4
:101FE000FBFD0D2000F0E8FD002000F0E5FDC32022
:101FF00000F0F2FD8D2000F0DFFD2A2000F0DCFD76
:10200000C42000F0E9FD8D2000F0D6FDEE2000F0A8
:10201000D3FDC52000F0E0FD1A2000F0CDFD3620F4
:1020200000F0DAFD702000F0C7FDE02000F0D4FDE4
:10203000042000F0C1FD222000F0BEFD072000F0CA
:10204000BBFD0A2000F0B8FD2E2000F0B5FD3020C9
:1020500000F0B2FD252000F0AFFD2A2000F0ACFD1D
:10206000282000F0A9FD262000F0A6FD2E2000F07B
:10207000A3FD3A2000F0A0FD002000F09DFD01200E
:1020800000F09AFD032000F097FD132000F094FD6E
:10209000E12000F0A1FD042000F08EFD162000F0EC
:1020A0008BFD062000F088FD0D2000F085FD2D2021
:1020B00000F082FD262000F07FFD232000F07CFD53
:1020C000272000F079FD272000F076FD252000F084
:1020D00073FD2D2000F070FD3B2000F06DFD002011
:1020E00000F06AFD012000F067FD042000F064FDAF
:1020F000132000F061FD3A2000F06EFD052000F095
:102100005BFD292000F068FD10BD0000000C0140BF
:102110002DE9FF5F07468A4690469B460F9D0020AB
:1021200002900097284605EBD071C1F34704204682
:10213000E21704EB5272D2102146E31704EB5373FB
:10214000DB10A4EBC3030BB1012300E000231A440E
:102150006A4392B20192A8F1200000F0FF080AEB56
:102160000500401E83B23819401E82B251463846DF
:10217000FFF7D2FD00265DE00C2D07D108EB4800EB
:102180002F4901EB8000805D039013E0102D05D1F5
:102190002C4800EB0810805D03900BE0182D07D150
:1021A00008EB4800284901EB0010805D039001E036
:1021B000BDE8FF9F4FF0000936E01098C8B9012034
:1021C00000FA09F00399084018B1584600F0E0FC05
:1021D00002E00E9800F0DCFC0298401CC0B20290B5
:1021E000029890FBF4F104FB1100C8B900200290A2
:1021F0001DE0012000FA09F00399084020B15A4679
:1022000051463846FFF716FE781C87B20098381AF8
:10221000A04205D1009F0AF101001FFA80FA06E0F2
:1022200009F1010000F0FF09B9F1080FC5DB00BF9B
:10223000701C86B2019886429EDB00BFB8E70000A2
:10224000CC3D000840420008304800082DE9FE4F10
:102250008046894615469A46DDE90D470C9E27E0E3
:102260000C2C09D153462A4649464046CDE9014740
:10227000009600F023F816E0102C09D153462A46A8
:1022800049464046CDE90147009600F0BFF80AE014
:10229000182C08D153462A4649464046CDE9014705
:1022A000009600F053F9AD1C08EB04001FFA80F80B
:1022B00028780028D4D1BDE8FE8F00002DE9FF5F0B
:1022C0000646894692469B460F9C0027B84600204A
:1022D000039000250290019000962046E21704EB3F
:1022E0005272D2102146E31704EB5373DB10A4EBB8
:1022F000C3030BB1012300E000231A44624392B2EE
:1023000001920D200290002579E005EB850000EB9D
:10231000C5003D4911F810009AF8001088426BD1B1
:1023200005EB850000EBC500374901EB4000407824
:102330009AF8011088425FD109EB0400401E83B275
:102340003019401E82B249463046FFF7E5FC0027AF
:102350004FE04FF0000846E0109808BB05EB850001
:1023600000EBC500284901EB4000801CC05D012145
:1023700001FA08F1084018B1584600F009FC02E0E3
:102380000E9800F005FC0398401CC0B2039003981F
:1023900090FBF4F104FB110008BB0020039025E042
:1023A00005EB850000EBC500174901EB4000801CE0
:1023B000C05D012101FA08F1084020B15A464946A2
:1023C0003046FFF737FD701C86B20098301AA042E5
:1023D00005D1009E09F101001FFA80F906E008F11D
:1023E000010000F0FF08B8F1080FB5DB00BF781C52
:1023F000C7B201988742ACDB00BF681C85B2029867
:10240000854282DBBDE8FF9F005A00082DE9FF5F8F
:102410000646894692469B460F9C0027B8460020F8
:10242000039000250290019000962046E21704EBED
:102430005272D2102146E31704EB5373DB10A4EB66
:10244000C3030BB1012300E000231A44624392B29C
:10245000019209200290002571E005EB05103A4930
:1024600011F810009AF80010884265D105EB0510AC
:10247000354901EB400040789AF8011088425BD161
:1024800009EB0400401E83B23019401E82B2494657
:102490003046FFF741FC00274BE04FF0000842E0D8
:1024A0001098F8B905EB0510274901EB4000801C96
:1024B000C05D012101FA08F1084018B1584600F04A
:1024C00067FB02E00E9800F063FB0398401CC0B26B
:1024D0000390039890FBF4F104FB1100F8B900207D
:1024E000039023E005EB0510174901EB4000801C29
:1024F000C05D012101FA08F1084020B15A46494661
:102500003046FFF797FC701C86B20098301AA04244
:1025100005D1009E09F101001FFA80F906E008F1DB
:10252000010000F0FF08B8F1080FB9DB00BF781C0C
:10253000C7B201988742B0DB00BF681C85B2029821
:1025400085428ADBBDE8FF9F525B00082DE9FF5FF3
:102550000646894692469B460F9C0027B8460020B7
:10256000039000250290019000962046E21704EBAC
:102570005272D2102146E31704EB5373DB10A4EB25
:10258000C3030BB1012300E000231A44624392B25B
:10259000019205200290002579E005EB850000EB13
:1025A00045103D4911F810009AF8001088426BD18F
:1025B00005EB850000EB4510374901EB4000407802
:1025C0009AF8011088425FD109EB0400401E83B2E3
:1025D0003019401E82B249463046FFF79DFB002766
:1025E0004FE04FF0000846E0109808BB05EB85006F
:1025F00000EB4510284901EB4000801CC05D012123
:1026000001FA08F1084018B1584600F0C1FA02E09A
:102610000E9800F0BDFA0398401CC0B203900398D6
:1026200090FBF4F104FB110008BB0020039025E0AF
:1026300005EB850000EB4510174901EB4000801CBD
:10264000C05D012101FA08F1084020B15A4649460F
:102650003046FFF7EFFB701C86B20098301AA0429C
:1026600005D1009E09F101001FFA80F906E008F18A
:10267000010000F0FF08B8F1080FB5DB00BF781CBF
:10268000C7B201988742ACDB00BF681C85B20298D4
:10269000854282DBBDE8FF9F845C00082DE9FE4F88
:1026A00006460F4614469846DDE90D5ADDF830908F
:1026B00010E0CDE9015ACDF8009022784346394622
:1026C0003046FFF725FD284605EBD07106EB61018A
:1026D0008EB2641C20780028EBD1BDE8FE8F00008C
:1026E0002DE9F04F93B00446402103A8FDF721FDEA
:1026F0006069FDF742FF05462A460B466CA103A818
:1027000000F05AFD002010214FF4FC620346CDE991
:102710000021029003AA6A210520FFF7BFFF402194
:1027200003A8FDF706FD20696349FDF78FFF1FD859
:1027300020696149FDF792FD0746FDF71EFF05463A
:102740002A460B465DA103A800F036FD00201021AB
:102750004FF4FC620346CDE90021029003AA6A21EE
:102760003720FFF79BFF402103A8FDF7E2FC1AE0AA
:102770002069FDF702FF05462A460B4652A103A831
:1027800000F01AFD002010214FF4FC620346CDE951
:102790000021029003AA6A213720FFF77FFF402122
:1027A00003A8FDF7C6FCA07801280DD10020102158
:1027B0004FF6E0720346CDE90021029045A22421A4
:1027C0007620FFF743FD0CE0002010214FF6E07269
:1027D0000346CDE90021029040A224217620FFF794
:1027E00035FDA088B0F57A7F1BDBA0884FF47A71A5
:1027F00090FBF1F52A463BA103A800F0DDFC002088
:1028000010214FF6E0720346CDE90021029003AAA1
:1028100048216E20FFF742FF402103A8FDF789FC05
:1028200015E0A28831A103A800F0C6FC0020102109
:102830004FF6E0720346CDE90021029003AA482139
:102840006E20FFF72BFF402103A8FDF772FCE06824
:10285000FDF761FE83460021FDF776FC8146E088A6
:10286000FDF759FE82464946FDF7F8FC0646214928
:10287000FDF7C2FC0546FDF780FE07463A460B46CB
:102880001DA103A800F098FC002010214FF6E07273
:102890000346CDE90021029003AA6A216E20FFF7CA
:1028A000FDFE402103A8FDF744FC13B0BDE8F08F06
:1028B00025312E326656200000007A4425322E3013
:1028C000664B487A2000000025332E3066487A2077
:1028D00000000000B4F2BFAA00000000B9D8B1D5D2
:1028E000000000002533644B487A00002025336443
:1028F000487A00000000C84225332E316625252085
:102900002000000010B58CB00024202104A8FDF7A1
:1029100010FC002010214FF4FC620346CDE9002199
:10292000029083A201460A20FFF790FC83A104A82D
:1029300000F042FC002010214FF6E0720346CDE982
:102940000021029004AA01466E20FFF7A7FE202175
:1029500004A8FDF7EEFB00200C2147F60F024FF60E
:10296000FF73CDE90021029076A214216E20FFF7BB
:102970006DFC77A104A800F01FFC002010214FF689
:10298000E0720346CDE90021029004AA24216E20C2
:10299000FFF784FE202104A8FDF7CBFB00200C21CB
:1029A00047F60F024FF6FF73CDE9002102906AA2AD
:1029B00038216E20FFF74AFC65A104A800F0FCFB5B
:1029C000002010214FF6E0720346CDE9002102906D
:1029D00004AA48216E20FFF761FE202104A8FDF71C
:1029E000A8FB60A104A800F0E7FB00200C2147F63B
:1029F0000F024FF6FF73CDE90021029004AA5C217B
:102A00006E20FFF74BFE202104A8FDF792FB00206B
:102A10000C2147F60F024FF6FF73CDE9002102901B
:102A200053A25C217620FFF711FC49A104A800F015
:102A3000C3FB002010214FF6E0720346CDE90021D0
:102A4000029004AA6A216E20FFF728FE202104A824
:102A5000FDF76FFB00200C2147F60F024FF6FF73C6
:102A6000CDE90021029044A25C210520FFF7EEFB96
:102A700000200C2147F60F024FF6FF73CDE900212D
:102A8000029040A25C213720FFF7E0FB00BF07E087
:102A90004FF6E07221466A20FFF7CCF9A01C84B201
:102AA000802CF5DD002407E04FF4FC625121204624
:102AB000FFF7C0F9601C84B2642CF5DB002417E03A
:102AC00004EB8401022202EB410188B24FF4FC6264
:102AD0005221FFF7AFF904EB8401032202EB41011D
:102AE00088B24FF4FC625221FFF7A4F9601C84B253
:102AF0000A2CE5DB002417E004EB8401022202EB40
:102B0000410188B24FF4FC625321FFF793F904EBC3
:102B10008401032202EB410188B24FF4FC6253218D
:102B2000FFF788F9601C84B20A2CE5DB0CB010BDFD
:102B3000BCF2D2D7CABEB2A8C6F7000020205057B8
:102B40004D200000CAE4B3F6D7B4CCAC00000000BE
:102B50002020202020200000CAE4B3F6C6B5C2CA57
:102B60000000000020202020202020200000000065
:102B7000D5BCBFD5B1C80000CAE4C8EBB7F9D6B51B
:102B800000000000CAE4C8EBC6B5C2CA00000000DD
:102B900010B5044680210748FEF7FFFB2012FEF720
:102BA00081FFE0B2FEF77EFF80210248FEF7F7FBCF
:102BB00010BD0000000C014010B5044680210548FE
:102BC000FEF7EBFB2046FEF76DFF80210148FEF784
:102BD000E6FB10BD000C014010B5044680210948F9
:102BE000FEF7DBFB40210748FEF7D7FB2046FEF748
:102BF00059FF40210348FEF7D2FB40210148FEF770
:102C0000CEFB10BD000C0140F0B50C46154600226D
:102C10000021068C4FF6FE773E400684028B018C25
:102C20004FF60C7632407E1C06EA03162E433243E2
:102C3000104EB0420ED0104EB0420BD0B0F1804FCB
:102C400008D00E4EB04205D00D4EB04202D00D4E0F
:102C5000B04206D14FF6FD76314044F001063143D3
:102C600005E04FF6F576314044F00106314302832A
:102C70000184F0BD002C01400034014000040040FC
:102C800000080040000C0040F0B50C46154600223C
:102C900000210026078C4FF6EF7C07EA0C0707841B
:102CA000028B018C4FF6FF7707EA041640F6FF47C8
:102CB0003A404FF6FF7707EA03373A434FF6FF777C
:102CC00007EA05273A43114FB8420ED0104FB842D9
:102CD0000BD0B0F1804F08D00E4FB84205D00E4F48
:102CE000B84202D00D4FB84206D14FF6DF773940D7
:102CF00046F01007394305E04FF65F77394044F05E
:102D00001007394302830184F0BD0000002C01400C
:102D1000003401400004004000080040000C004066
:102D2000F0B50C461546002200210026078C4FF610
:102D3000FF6C07EA0C070784828B018C4FF6FF7744
:102D400007EA04264FF60C773A404FF6FF7707EA7A
:102D500003172F433A43114FB8420ED0104FB842D9
:102D60000BD0B0F1804F08D00E4FB84205D00E4FB7
:102D7000B84202D00D4FB84206D14FF6FF57394046
:102D800046F48077394305E04FF2FF57394044F469
:102D90008077394382830184F0BD0000002C01401C
:102DA000003401400004004000080040000C0040D6
:102DB000F0B50C461546002200210026078C4EF681
:102DC000FF7C07EA0C070784828B018C4FF6FF77A4
:102DD00007EA043640F6FF473A404FF6FF7707EA26
:102DE00005273A434FF6FF7707EA03373A43114F77
:102DF000B8420ED0104FB8420BD0B0F1804F08D07F
:102E00000E4FB84205D00E4FB84202D00D4FB84217
:102E100006D14DF6FF77394046F48057394305E037
:102E200047F6FF57394044F4805739438283018481
:102E3000F0BD0000002C01400034014000040040BF
:102E400000080040000C004070B50121234800F04C
:102E500062F840B122488088401C214988800121C5
:102E60001E4800F046F802211C4800F054F80028E3
:102E700033D01B48407850B90021184800F019F9A8
:102E800000201749888048800120487021E01448BC
:102E9000407801281DD1114800F03AF810494880C7
:102EA0004988491C0E4A928801EB0240FDF72AFB33
:102EB000054629464FF07E50FDF7D0F904460949F2
:102EC000FDF79AF90849086100200549487001207A
:102ED00008700221014800F00CF870BD00040040A9
:102EE0001C0000200024744930000020CA430282E4
:102EF0007047CA430282704721B1028842F0010242
:102F0000028004E002884FF6FE731A400280704788
:102F10000146888E704730B5024600200023002409
:102F2000158A05EA0103958905EA010413B10CB17C
:102F3000012000E0002030BD70B505460C46244855
:102F400085420ED0234885420BD0B5F1804F08D082
:102F50002148854205D02148854202D0204885423B
:102F600000D100E000BF208850B92389A288618881
:102F70002846FFF749FEE188284600F09CF825E046
:102F8000208804280AD12389A28861882846FFF76F
:102F90007BFEE188284600F097F817E02088082893
:102FA0000AD12389A28861882846FFF7B9FEE18803
:102FB000284600F096F809E02389A288618828460F
:102FC000FFF7F6FEE188284600F094F870BD000097
:102FD000002C014000340140000400400008004083
:102FE000000C00401AB183890B43838102E083897E
:102FF0008B4383817047000070B5002400220023BA
:10300000058C4FF6FF6635400584028C8388848BDF
:103010004FF68F752C404FF6FC752C400D882C43D5
:103020004FF6FF552A400D894FF6FF7606EA052533
:103030002A434D8806EA05252A43154DA84202D0A9
:10304000144DA8421DD14FF2FF752A404D894FF60D
:10305000FF7606EA05252A434FF6FF352A408D887C
:1030600006EA05252A434EF6FF752B404DF6FF75FF
:103070002B408D8906EA05152B43CD8906EA0515F7
:103080002B4383808483CD888587028470BD0000B4
:10309000002C0140003401400A460021818B4FF68C
:1030A000F773194011438183704781857047818789
:1030B000704781847047028B4FF6F3731A40028386
:1030C000028B0A4302837047028B4FF2FF331A4090
:1030D0000283028B4FF6FF7303EA01231A43028334
:1030E0007047828B4FF6F3731A408283828B0A43B8
:1030F00082837047828B4FF2FF331A408283828B28
:103100004FF6FF7303EA01231A43828370470000DE
:10311000002202881D4B98420ED01D4B98420BD0C6
:10312000B0F1804F08D01B4B984205D01A4B984203
:1031300002D01A4B984204D14FF68F731A404B8835
:103140001A43174B984207D0164B984204D04FF6BB
:10315000FF431A40CB881A4302808B8883850B88F3
:1031600003850A4B98420BD0094B984208D00E4B6E
:10317000984205D00D4B984202D00D4B984201D198
:103180000B7A03860123838270470000002C0140E4
:10319000003401400004004000080040000C0040E2
:1031A0000010004000140040004001400044014075
:1031B0000048014000BFFEE70FB4084B10B504A95A
:1031C00002AA039800F0DEF8044602A9002000F0ED
:1031D00070FC204610BC5DF814FB0000B33A0008F8
:1031E00002E008C8121F08C1002AFAD170477047D0
:1031F000002001E001C1121F002AFBD1704700002E
:103200002DE9FF5F82B00021DDE90430020DDDF819
:1032100040B0034318D044F61050A2F2FF324243AC
:103220001514119801281FD0A5EB0B00401C5FEA74
:10323000000A4FF000064E4FDFF83891B046504676
:1032400015D5CAF1000413E0119801244AA30128FE
:1032500001D16FEA0B010298119AC0E90031C0E96F
:10326000024206B0BDE8F09FCBF10000DFE7044664
:103270000021404A491842EB0450CDE9001012E009
:10328000E00707D032463B4640464946FDF7E4FAA0
:103290008046894632463B4610461946FDF7DCFA21
:1032A00006460F466410002CEAD1DDE90401DDE991
:1032B0000023BAF1000F06DAFDF7CEFA42464B467C
:1032C000FDF7CAFA05E0FDF7AEF842464B46FDF7BA
:1032D000AAF804460E460022284BFDF779F903D8D8
:1032E0004FF0FF30014607E00022254B20463146D3
:1032F000FCF7F2FFFDF722FB102409E0002C0ADBAB
:103300000A220023FDF7C2F9039B30321A55641ECE
:1033100050EA0102F2D1641C039AC4F1110314446F
:10332000119A012A03D0012208430DD10AE0084373
:1033300004D000204FF0110B119072E7A3EB0B05A6
:103340006D1E0DE05B4504DD4FF0000205F1010547
:1033500004E003DA4FF00002A5F10105002AECD0E9
:1033600002981199C0E90231C0E9004579E70000EF
:10337000000014400000F03F300000000000F04367
:103380000000E03F2DE9FF4F95B09B468946064679
:1033900000250FE2252877D100242746F84A01218D
:1033A000059400E0044316F8013F203B01FA03F0C6
:1033B0001042F7D130782A2811D06FF02F033078DF
:1033C000A0F13002092A16D8059A44F0020402EB53
:1033D000820203EB42021044761C0590EFE759F895
:1033E000042B0592002A03DA504244F4005405905D
:1033F00044F00204761C30782E2816D116F8010FFE
:1034000044F004042A280DD06FF02F023078A0F188
:103410003003092B09D807EB870302EB4303C718D6
:10342000761CF3E759F8047B761C30786C280FD0B3
:1034300006DC4C2817D068280DD06A2814D104E087
:10344000742810D07A280FD10DE044F400140AE05B
:1034500044F4801401E044F440147278824202D1B2
:1034600004F58014761C761C307866280BD013DCAB
:10347000582877D009DC002875D04528F6D0462892
:10348000F4D047281AD19DE118E0632835D064288C
:1034900079D0652812D195E1702873D008DC6728AF
:1034A000F1D069286FD06E280DD06F2806D1B5E015
:1034B00073282CD0752875D0782874D05A4617995F
:1034C00090476D1C75E1C4F30250022809D003280F
:1034D0000DD0D9F8001004280DD00D6009F10409B1
:1034E00067E1D9F80010EA17C1E90052F6E7D9F808
:1034F00000100D80F2E70D70F0E719F8041B8DF84D
:10350000001000208DF80100EA46012003E059F880
:1035100004AB4FF0FF3061074FF0000102D40DE023
:1035200008F101018846B9420FDA8045F8DB1AF844
:1035300008100029F4D108E008F101018846814211
:10354000FADB1AF808100029F6D105985B46A0EBC3
:10355000080721463846179A00F094FA284400EBF1
:10356000080507E04DE029E10DE01AF8010B5A4685
:1035700017999047B8F10108F7D25B4621463846C3
:10358000179A13E142E00A220092C4F302524FF06C
:10359000000A022A08D059F804CB032A4FEAEC713A
:1035A0000AD00DE029E02AE009F1070121F0070225
:1035B000F2E802C1914609E00FFA8CFC4FEAEC7187
:1035C000042A03D14FFA8CFC4FEAEC71002907DA88
:1035D0000A460021DCF1000C61EB02012D2202E021
:1035E000220504D52B228DF80420012203E0E207F6
:1035F00001D02022F7E7904659E00A2102E010228C
:103600000DE010214FF0000A00910BE010224FF066
:10361000000A44F004040827009203E008224FF057
:10362000000A0092C4F30252022A05D059F804CBD2
:103630000021032A08D009E009F1070121F007025F
:10364000F2E802C1914605E01FFA8CFC042A01D180
:103650000CF0FF0C4FF00008220728D5702806D088
:10366000009B83F0100353EA0A0305D00EE04022CA
:103670008DF80420012208E05CEA010206D0302225
:103680008DF804208DF8050002229046009B83F0FF
:10369000080353EA0A030AD15CEA010201D1620776
:1036A00005D530228DF804204FF001087F1E5828E0
:1036B00004D034A003900EA802900DE036A0F9E7E4
:1036C00053466046009AFCF7E1FF84460398825C0B
:1036D0000298401E029002705CEA0100F0D102984C
:1036E00006A9081A00F1200A600702D524F48034E4
:1036F00000E00127574502DDA7EB0A0000E00020AB
:1037000000EB0A01009005984144401A0590E0033F
:1037100006D45B462146179A059800F0B3F9054494
:10372000002706E001A85A46C05D179990476D1C16
:103730007F1C4745F6DBE0030CD55B462146179A14
:10374000059800F09FF9054404E030205A46179987
:1037500090476D1C0099481E00900029F5DC08E098
:10376000029802995A460078491C0291179990478D
:103770006D1CBAF10001AAF1010AF1DC65E100005B
:103780000928010030313233343536373839616237
:1037900063646566000000003031323334353637FB
:1037A00038394142434445460000000000F058F9D2
:1037B0000544761C307800287FF4ECAD19B028461B
:1037C000BDE8F08F620700D4062709F1070222F056
:1037D000070CFCE80223E14603F000485FEA080C0E
:1037E00002D00FF2702C0DE05FEA045C02D50FF2FC
:1037F000682C07E05FEAC47C02D00FF2602C01E085
:10380000AFF2700C4FF0FF3823F00043CDF850C0FA
:1038100065280CD006DC452809D046281DD047284D
:103820003DD13DE0662818D067287ED138E00021E0
:10383000112F01DB112000E0781CCDE9000106A961
:103840000EA8FFF7DDFCDDE90F010E9A03910021C0
:10385000009207F1010A04914DE04FF000400097FB
:10386000CDE9011006A90EA8FFF7CAFCDDE90F0299
:1038700003920E9B11990022DDF80CA00093049294
:1038800011B9791C00EB010AB7EB0A0004D4C0F1AE
:10389000FF3007F1010A0490AAEB0700019044E011
:1038A000012F00DA01270021112F01DD112000E096
:1038B0003846CDE9000106A90EA8FFF7A1FCDDE915
:1038C0000F010E9A0391002104910092BA4621073C
:1038D0000CD40399514500DA8A46BAF1010F05DD8F
:1038E000009AAAF10101515C302908D0B84202DAED
:1038F00010F1040F06DA0121CDE9011015E0AAF15B
:103900000101E9E7002805DC049901440491AAEBD0
:10391000000102E0411C514500DD8A460499401A2D
:10392000401C01904FF000400290200704D4019801
:10393000504501DBCDF8048000208DF84F0002983F
:103940000DF14F07B0F1004F25D02B200E900298BB
:103950004FF0020800280CDA404202902D200E9011
:1039600007E00A210298FCF77BFE3031029007F84D
:10397000011DB8F10001A8F10108F2DC029800284D
:10398000EFD1791E0E980870307800F0200040F0DA
:10399000450007F8020D12A8C01B00F10708149893
:1039A000007800B1012000EB0A01019801EBE07101
:1039B00005984144401A401E0590E00306D45B463A
:1039C0002146179A059800F05DF805441498007890
:1039D00018B15A46179990476D1CE00324D55B46F1
:1039E0002146179A059800F04DF805441CE004980C
:1039F000002807DBDDE90301884203DD0098405C15
:103A0000179901E0179930205A469047049805F11C
:103A10000105401C04900198401E019004D12E2005
:103A20005A46179990476D1CBAF10001AAF1010A94
:103A3000DDDC05E017F8010B5A46179990476D1C1D
:103A4000B8F10001A8F10108F4DC5B462146179AA1
:103A50000598ABE62D0000002B00000020000000C0
:103A60002DE9F041044600251E461746880404D47B
:103A700005E039462020B0476D1C641EF9D5284664
:103A8000BDE8F0812DE9F041044600251E46904630
:103A9000C80301D5302700E02027880404D505E0BD
:103AA00041463846B0476D1C641EF9D52846BDE82E
:103AB000F0810A68531C0B6010707047014642F297
:103AC00028324A434FF0E0235A6100229A610122D2
:103AD0001A6100BF4FF0E022106900F001021AB134
:103AE00000F48032002AF5D000224FF0E0231A6162
:103AF0009A617047F8B507460E4600250024B81BAA
:103B000084B21A48007870B14FF4FC62214600205C
:103B1000FEF790F90020164908801648048000201E
:103B20001249087020E012480088401C85B2642DBC
:103B30000FDA4FF4FC6023462A4600900D480188B6
:103B40000B480088FEF705F90948058009480480FC
:103B50000AE04FF4FC6221460020FEF76BF90020DA
:103B60000349088003480480F8BD000018000020C5
:103B7000140000201600002088B000240025002634
:103B8000A1464FF07E50079000200690824687485D
:103B9000FDF748FDFEF77EF8FDF728FDFEF7B8F9C2
:103BA000FCF768FFFDF710FCFDF7A8FC7F4AD18801
:103BB000D268501EFDF748FDFDF762FC002080230F
:103BC000A02201460090FEF743F9FEF79BFEECE0D1
:103BD0007648FDF7E7FD754800780128F7D1002009
:103BE000724908704861002437E02046FDF7DAFB8F
:103BF0008346FCF790FC80466D49FCF7FDFA0746CA
:103C00004FF08B41FCF72AFB6849183141F824003A
:103C1000084650F824104FF08040FCF7EDFA0746B4
:103C20006449FCF7E6FA8146604948694946FCF771
:103C300003FD02D25D48C0F814905C494869FCF766
:103C40009CFC07464FF033325B4BFCF7A9FC02D8D3
:103C5000002056490861601C84B2B4F5967FC4DB2D
:103C600001215648FDF758F800241AE04F49183151
:103C700051F824000799FCF7DFFC10D20BE04B4908
:103C8000183151F824000799FCF7E0FC01D2A24654
:103C900003E0601C84B2C82CF1DB00BF03E0601CB1
:103CA00084B2C82CE2DB00BF40494869FCF765FCE0
:103CB00007464FF03332404BFCF78AFC2FD23B488B
:103CC00041693C48FCF792FA4FF080410190FCF7C3
:103CD000C5FA8346FCF751FC07460022384BFCF737
:103CE0009FFB00224FF08043CDE90201FCF79BFBD4
:103CF000CDE90401FCF784FC054629463148FCF770
:103D0000ADFA06902846FCF738FC00222C4BCDE992
:103D10000401FCF785FB0746FCF772FC0546544698
:103D20003FE02248407804280DD100201F49487008
:103D300000BF1E484078042803D100201B4948706A
:103D400000E0F6E700BF1948183050F82460294613
:103D50003046FCF77BFC0DD829463046FCF746FA86
:103D600080460699FCF748FA07461749FCF741FADE
:103D700006460CE031462846FCF738FA804606999C
:103D8000FCF73AFA07461049FCF7DEF906463046DA
:103D9000FCF7C6FB07B239465020FFF7ABFE601CAC
:103DA00084B20AF164008442BBDB11E730000020DA
:103DB000333353400000A0403333D33F0800024068
:103DC00000000440000034410000F0410000000009
:103DD00000000000000000000000040404040400CF
:103DE0000004000014140A0000000000000000009D
:103DF00000000A0A1F0A0A1F0A0A000000040E1522
:103E000005060C14150E0400000012150D152E2CBD
:103E10002A1200000000040A0A36151529160000AF
:103E20000202010000000000000000001008080469
:103E30000404040408081000020404080808080820
:103E40000404020000000004150E0E15040000001A
:103E500000000008083E0808000000000000000004
:103E6000000000000202010000000000003F00000E
:103E70000000000000000000000000000002000040
:103E800000201010080804040202010000000E11B6
:103E900011111111110E00000000040604040404A5
:103EA000040E000000000E1111080402011F0000A2
:103EB00000000E11100C1010110E00000000080C74
:103EC0000C0A091F081C000000001F01010F11103F
:103ED000110E000000000C12010D1311110E000054
:103EE00000001E10080804040404000000000E1165
:103EF000110E1111110E000000000E1111191610F3
:103F0000090600000000000004000000000400009A
:103F1000000000000004000000040400000010087D
:103F20000402020408100000000000003F003F00EF
:103F30000000000000000204081010080402000045
:103F400000000E11110804040004000000001C22EF
:103F5000292D2D1D221C0000000004040C0A0A1E3D
:103F60001233000000000F12120E1212120F000086
:103F700000001E1101010101110E000000000F12CE
:103F800012121212120F000000001F120A0E0A0273
:103F9000121F000000001F120A0E0A020207000092
:103FA00000001C1201013911120C00000000331234
:103FB000121E12121233000000001F040404040435
:103FC000041F000000003E08080808080808090748
:103FD000000037120A060A1212370000000007021A
:103FE00002020202223F000000003B1B1B1B1515B2
:103FF0001535000000003B1216161A1A12170000A1
:1040000000000E1111111111110E000000000F120D
:10401000120E02020207000000000E11111111170A
:10402000190E180000000F12120E0A1212370000AB
:1040300000001E1101060810110F000000001F15DE
:1040400004040404040E00000000331212121212C1
:10405000120C000000003312120A0A0C04040000C3
:104060000000151515150E0A0A0A000000001B0AAB
:104070000A04040A0A1B000000001B0A0A0A0404BE
:10408000040E000000001F0908040402121F0000B3
:104090001C0404040404040404041C0000020204BC
:1040A00004040808081010000E080808080808088A
:1040B00008080E00040A00000000000000000000D4
:1040C00000000000000000000000003F02040000AB
:1040D000000000000000000000000000000C121CA6
:1040E000123C000000030202020E1212120E000027
:1040F00000000000001C1202120C0000001810103A
:10410000101C1212123C000000000000000C121ED5
:10411000021C000000182404041E0404041E0000F5
:1041200000000000003C120C021C221C00030202D2
:10413000020E1212123700000004040000060404EC
:10414000040E000000080800000C08080808080712
:1041500000030202021A0A060A1300000007040400
:1041600004040404041F000000000000000F1515E3
:104170001515000000000000000F12121237000099
:1041800000000000000C1212120C000000000000E1
:10419000000F1212120E020700000000001C121283
:1041A000121C103800000000001B0602020700006D
:1041B00000000000001E020C101E000000000004A1
:1041C000041E0404041C000000000000001B121266
:1041D000123C000000000000001B0A0A040400005A
:1041E000000000000015150E0A0A00000000000083
:1041F000001B0A040A1B000000000000003312121A
:104200000C08040300000000001E0804041E000047
:1042100018080808080C0808080818000808080802
:104220000808080808080808060404040408040428
:104230000404060016090000000000000000000051
:10424000000000000000000000000000000000006E
:1042500000000008080808080808000018180000F6
:1042600000486C2412000000000000000000000064
:104270000000002424247F1212127F121212000068
:104280000000081C2A2A0A0C1828282A2A1C0808B8
:1042900000000022251515152A58545454220000F8
:1042A0000000000C1212120A76252911916E0000EE
:1042B00000060604030000000000000000000000EB
:1042C00000402010100808080808081010204000BE
:1042D0000002040808101010101010080804020052
:1042E0000000000008086B1C1C6B080800000000A0
:1042F00000000000080808087F08080808000000FF
:10430000000000000000000000000000060604039A
:104310000000000000000000FE000000000000009F
:104320000000000000000000000000000606000081
:104330000000804040202010100808040402020001
:104340000000001824424242424242422418000027
:10435000000000080E08080808080808083E0000C9
:104360000000003C4242422020100804427E00002F
:104370000000003C4242201820404042221C000025
:10438000000000203028242422227E2020780000F3
:104390000000007E0202021A26404042221C000059
:1043A000000000382402021A26424242241800006B
:1043B0000000007E222210100808080808080000EB
:1043C0000000003C4242422418244242423C000089
:1043D000000000182442424264584040241C00005F
:1043E000000000000000181800000000181800006D
:1043F00000000000000000080000000000080804A1
:1044000000000040201008040204081020400000B2
:104410000000000000007F0000007F00000000009E
:1044200000000002040810204020100804020000D0
:104430000000003C424246402010100018180000C6
:104440000000001C225A555555552D42221C0000D3
:104450000000000808181414243C224242E700001F
:104460000000001F2222221E22424242221F000080
:104470000000007C4242010101010142221C0000B7
:104480000000001F2242424242424242221F0000DC
:104490000000003F4212121E12120242423F000070
:1044A0000000003F4212121E121202020207000018
:1044B0000000003C2222010101712122221C000087
:1044C000000000E7424242427E42424242E7000090
:1044D0000000003E0808080808080808083E000018
:1044E0000000007C10101010101010101010110F90
:1044F0000000007722120A0E0A1212222277000010
:10450000000000070202020202020202427F0000D3
:1045100000000077363636362A2A2A2A2A6B00000F
:10452000000000E346464A4A525252626247000087
:104530000000001C2241414141414141221C000038
:104540000000003F424242423E02020202070000D7
:104550000000001C2241414141414D53321C60008A
:104560000000003F4242423E1212222242C7000097
:104570000000007C4242020418204042423E0000FB
:104580000000007F4908080808080808081C000007
:10459000000000E74242424242424242423C0000A6
:1045A000000000E7424222242414141808080000E6
:1045B0000000006B49494949555536222222000026
:1045C000000000E7422424181818242442E70000C1
:1045D000000000772222141408080808081C0000B4
:1045E0000000007E2120101008040442423F000019
:1045F000007808080808080808080808080878006B
:104600000000020204040808081010202020404086
:10461000001E1010101010101010101010101E009E
:10462000003844000000000000000000000000000E
:10463000000000000000000000000000000000FF7B
:10464000000608000000000000000000000000005C
:10465000000000000000003C4278444242FC0000A0
:10466000000000030202021A26424242261A0000FB
:10467000000000000000003844020202443800003C
:1046800000000060404040784442424264D800004C
:10469000000000000000003C427E0202423C00009C
:1046A000000000F08808087E08080808083E00009E
:1046B000000000000000007C22221C023C42423C20
:1046C000000000030202023A4642424242E7000072
:1046D0000000000C0C00000E08080808083E00004E
:1046E0000000003030000038202020202020221E32
:1046F0000000000302020272120A16122277000062
:104700000000000E0808080808080808083E000015
:10471000000000000000007F9292929292B7000089
:10472000000000000000003B4642424242E7000019
:10473000000000000000003C42424242423C0000B7
:10474000000000000000001B26424242221E020719
:10475000000000000000007844424242447840E0FB
:1047600000000000000000774C040404041F000057
:10477000000000000000007C42023C40423E00007D
:10478000000000000008083E080808080830000083
:1047900000000000000000634242424262DC000070
:1047A00000000000000000E7422424140808000074
:1047B00000000000000000EB49495555222200008E
:1047C000000000000000007624181818246E000075
:1047D00000000000000000E7422424141808080725
:1047E000000000000000007E22100808447E000047
:1047F00000C0202020202010202020202020C000C9
:1048000010101010101010101010101010101010A8
:104810000006080808080810080808080808060024
:104820000C32C20000000000000000000000000088
:104830000000000000000000000000000000000078
:104840000000000000000000000000000000000068
:104850000000000000000000000000000000000058
:1048600000000000000000006000600060006000C8
:104870006000600060004000200020002000000078
:104880000000000060006000600000000000000008
:1048900000000000600660063003980188004400B4
:1048A0000000000000000000000000000000000008
:1048B00000000000000000000000000000000000F8
:1048C00000000000000000001002100210021002A0
:1048D000FE07FE0708020801080108010801FE079B
:1048E000FE070401040104010401000000000000AF
:1048F00000000000000040004000F00158034C039D
:10490000CC034C0058007000E000C001C00140031F
:104910004C035C034C034801F000400040000000E1
:1049200000000000000000000E010A01910091004B
:104930009100510051003A00AE03A002500450040F
:104940004804480448048402840300000000000076
:10495000000000000000000038006C006C006C00DB
:104960006C006C002C0098071C011A013301330104
:104970006301E300C308C6093C0700000000000013
:10498000000000000C001C001000100008000400D3
:104990000000000000000000000000000000000017
:1049A0000000000000000000000000000000000007
:1049B00000000000000400020001800080004000B0
:1049C00040002000200020002000200020002000C7
:1049D0004000400080008000000100020004000050
:1049E0000000000002000400080010001000200079
:1049F00020004000400040004000400040004000D7
:104A00002000200010001000080004000200000038
:104A10000000000000000000000000004000C00096
:104A20004000460C4E0FD001F0015E0F460C4000D6
:104A300040004000000000000000000000000000F6
:104A40000000000000000000000000000000400026
:104A50004000400040004000FE0F40004000400089
:104A600040004000000000000000000000000000C6
:104A70000000000000000000000000000000000036
:104A80000000000000000000000000000000000026
:104A9000000000000C001C001000100008000400C2
:104AA0000000000000000000000000000000000006
:104AB0000000000000000000FE07000000000000F1
:104AC00000000000000000000000000000000000E6
:104AD00000000000000000000000000000000000D6
:104AE00000000000000000000000000000000000C6
:104AF000000000001C001C001C0000000000000062
:104B00000000000000040006000200030001000194
:104B10008000800040004000600020002000100065
:104B20001000080008000C0004000600020000004D
:104B300000000000000000000000F00098010C03DD
:104B40000C03060606060606060606060606060602
:104B500006060C030C039801F000000000000000A2
:104B60000000000000000000000040007C00600029
:104B70006000600060006000600060006000600035
:104B80006000600060006000FC03000000000000A6
:104B900000000000000000000000F8008401020393
:104BA00006030603000300018001C000600020002E
:104BB0001000080204020602FE03000000000000CC
:104BC000000000000000000000007800C600860120
:104BD000860180018001C000700080010001000397
:104BE0000003060306038601F80000000000000031
:104BF0000000000000000000000080018001C001F2
:104C0000A001A00190018801880184018201FE0FAA
:104C10008001800180018001E007000000000000A9
:104C200000000000000000000000FC03040004007D
:104C3000040004000400F4008C01040300030003DA
:104C40000603060382018401F80000000000000052
:104C500000000000000000000000E00118030C0349
:104C60000C0004000600E60116030E060606060602
:104C7000060604060C021803F00000000000000005
:104C800000000000000000000000F8070C0604020D
:104C9000040100010001800080004000400040004D
:104CA0006000600060006000600000000000000024
:104CB00000000000000000000000F8010C030606E0
:104CC000060606060C021C03F000C8010C030606CB
:104CD0000606060606060C03F001000000000000B0
:104CE00000000000000000000000F0000C010C03B8
:104CF000060206060606060606078C067806000665
:104D0000000300030C018C0178000000000000008B
:104D10000000000000000000000000000000000093
:104D200000000000E000E000E000000000000000E3
:104D300000000000E000E000E000000000000000D3
:104D40000000000000000000000000000000000063
:104D50000000000060006000000000000000000093
:104D60000000000000006000600040002000200003
:104D700000000000000000000004000200018000AC
:104D8000400020001000080004000800100020006F
:104D9000400080000001000200040000000000004C
:104DA0000000000000000000000000000000000003
:104DB00000000000FE07000000000000FE070000E9
:104DC00000000000000000000000000000000000E3
:104DD0000000000000000000040008001000200097
:104DE0004000800000010002000400020001800079
:104DF0004000200010000800040000000000000037
:104E000000000000000000000000E0031806040C91
:104E1000040C0C0C0C0C000780014000400040000A
:104E200000000000E000E000E000000000000000E2
:104E30000000000000000000E00018030C02CC0598
:104E400064056605A605B604B604B604B604B60243
:104E5000E4010C040C021803F00000000000000044
:104E60000000000000000000000060006000500032
:104E7000D00090009000880088010801F801040328
:104E800004030402020202060F0F000000000000EB
:104E900000000000000000000000FE008C030C0376
:104EA0000C030C030C038C01FC000C030C020C061D
:104EB0000C060C060C060C03FE01000000000000AE
:104EC00000000000000000000000E00318030C06D2
:104ED0000C04040406000600060006000600060096
:104EE00006040C040C021803F0000000000000008F
:104EF000000000000000000000007F008C010C0397
:104F00000C030C060C060C060C060C060C060C0614
:104F10000C060C030C038C017F0000000000000055
:104F200000000000000000000000FF03060306046C
:104F30000604060086008600FE00860086008600C5
:104F40000600060406040602FF030000000000003D
:104F500000000000000000000000FF03060306043C
:104F60000604060086008600FE0086008600860095
:104F700006000600060006001F00000000000000FA
:104F800000000000000000000000F00018010C020A
:104F90000C0204020600060006000600C60F060307
:104FA00006030C030C031803F000000000000000CF
:104FB000000000000000000000000F0F06060606BB
:104FC0000606060606060606FE0706060606060688
:104FD00006060606060606060F0F00000000000083
:104FE00000000000000000000000FC036000600002
:104FF00060006000600060006000600060006000B1
:105000006000600060006000FC0300000000000021
:1050100000000000000000000000F807C000C00011
:10502000C000C000C000C000C000C000C000C00080
:10503000C000C000C000C000C000C60066003C0048
:1050400000000000000000000000CF038601C60041
:1050500046002600160036002E006E004600C600F0
:1050600086008601060106038F070000000000008D
:10507000000000000000000000001F000600060005
:1050800006000600060006000600060006000600F0
:105090000600060406040602FF03000000000000EC
:1050A00000000000000000000000070786038603E0
:1050B0008E038E034E034E034A035A035A033A03E8
:1050C000320332033203120387070000000000009E
:1050D000000000000000000000008E0F0C021C0207
:1050E0001C0234023402640264024402C4028402D8
:1050F00084038403040304031F0200000000000073
:1051000000000000000000000000F00098010C0307
:105110000C0206060606060606060606060606062D
:1051200006060C020C039801F000000000000000CD
:1051300000000000000000000000FF00060306065B
:1051400006060606060606068603FE00060006009C
:1051500006000600060006001F0000000000000018
:1051600000000000000000000000F00098010C03A7
:105170000C020606060606060606060606060606CD
:1051800076064C02CC039801F00080070003000073
:1051900000000000000000000000FF0106030606FA
:1051A0000606060606060603FE004600C600860042
:1051B00086010603060306060F0E0000000000002D
:1051C00000000000000000000000F8020C030602CE
:1051D000060206000E003C00F800E0038003000712
:1051E0000206020606060C03F001000000000000A3
:1051F00000000000000000000000FE0762046108DB
:105200006108600060006000600060006000600095
:105210006000600060006000F80100000000000015
:10522000000000000000000000001E070C020C023D
:105230000C020C020C020C020C020C020C020C02FE
:105240000C020C020C021801F0000000000000002B
:10525000000000000000000000000F07060204012B
:1052600004010C010C01880088009800980050008F
:1052700050007000300020002000000000000000FE
:1052800000000000000000000000F70E620442046D
:105290004604460464026402E402E4029C029C01A7
:1052A0009801980188018800880000000000000033
:1052B000000000000000000000009E070C01080133
:1052C00018019000B0006000200060006000D00075
:1052D00090008801080104038E0700000000000010
:1052E000000000000000000000000F0F0604040290
:1052F0000C0208011801B800B000700060006000E6
:105300006000600060006000F80100000000000024
:1053100000000000000000000000FC070C02060373
:1053200002018001800040004000200020001000A9
:10533000180008040C040402FE0300000000000032
:1053400000000000E00320002000200020002000DA
:10535000200020002000200020002000200020004D
:10536000200020002000200020002000E00300009A
:105370000000000000000000040004000800080015
:105380001000100010002000200040004000C0006D
:105390008000800000010001000200020002000401
:1053A000000000007C004000400040004000400041
:1053B00040004000400040004000400040004000ED
:1053C0004000400040004000400040007C000000E1
:1053D00000006000900008010000000000000000D4
:1053E00000000000000000000000000000000000BD
:1053F00000000000000000000000000000000000AD
:10540000000000000000000000000000000000009C
:10541000000000000000000000000000000000008C
:105420000000000000000000000000000000FF0F6E
:1054300000000000180060000000000000000000F4
:10544000000000000000000000000000000000005C
:10545000000000000000000000000000000000004C
:10546000000000000000000000000000000000003C
:1054700000000000F0010C030C030003E0031C0318
:105480000E03060306038E0B7C0E000000000000D6
:10549000000000000000000008000E000C000C00DE
:1054A0000C000C00CC013C031C060C060C060C0680
:1054B0000C060C060C021C03E401000000000000B6
:1054C00000000000000000000000000000000000DC
:1054D00000000000F0008C018C018601060006002F
:1054E000060006020C020C01F000000000000000A3
:1054F00000000000000000000002C00300030003E1
:105500000003000378038C030C0306030603060361
:105510000603060304038C07780100000000000066
:10552000000000000000000000000000000000007B
:1055300000000000E001180308020C060C06FC073E
:105540000C000C0018041802E0010000000000002C
:1055500000000000000000000000C00360063006EC
:1055600030003000FE0130003000300030003000EC
:105570003000300030003000FC010000000000006E
:10558000000000000000000000000000000000001B
:1055900000000000F007D8068C018C018C019801F6
:1055A000F8000C00FC00CC03060306038E03F80091
:1055B000000000000000000008000E000C000C00BD
:1055C0000C000C00EC011C030C030C030C030C037B
:1055D0000C030C030C030C039E07000000000000EA
:1055E00000000000000000000000600060000000FB
:1055F000000040007C00600060006000600060000F
:105600006000600060006000FC030000000000001B
:1056100000000000000000000000C001C001000008
:1056200000000001F0018001800180018001800103
:10563000800180018001800180018001CC007C001C
:10564000000000000000000008000E000C000C002C
:105650000C000C008C038C008C004C006C005C0077
:105660008C008C010C010C039E0700000000000060
:10567000000000000000000040007C0060006000AE
:10568000600060006000600060006000600060001A
:105690006000600060006000FC030000000000008B
:1056A00000000000000000000000000000000000FA
:1056B000000000003707EE06660666066606660608
:1056C0006606660666066606FF0F0000000000001C
:1056D00000000000000000000000000000000000CA
:1056E00000000000EE011C030C030C030C030C0370
:1056F0000C030C030C030C039E07000000000000C9
:105700000000000000000000000000000000000099
:1057100000000000F00098010C03060606060606CD
:10572000060606060C030C03F00000000000000053
:105730000000000000000000000000000000000069
:1057400000000000EE011C030C060C060C060C0603
:105750000C060C060C031C03EC010C000C003E00B4
:105760000000000000000000000000000000000039
:105770000000000078028C030C03060306030603F6
:105780000603060304038C03780300030003C00729
:105790000000000000000000000000000000000009
:1057A000000000009F035806380618001800180073
:1057B0001800180018001800FF000000000000008A
:1057C00000000000000000000000000000000000D9
:1057D00000000000F0031C030C020C023800F00073
:1057E000C003040304038C03FC010000000000005C
:1057F0000000000000000000000000002000200069
:1058000030003000FE013000300030003000300049
:105810003000300030023002E001000000000000E3
:105820000000000000000000000000000000000078
:10583000000008028E030C030C030C030C030C0382
:105840000C030C030C039C0778010000000000000F
:105850000000000000000000000000000000000048
:10586000000000001E070C0208010801180190004A
:10587000B000B000600060002000000000000000E8
:105880000000000000000000000000000000000018
:1058900000000000F70E6204460464026402EC0299
:1058A0009C01980198019801080000000000000088
:1058B00000000000000000000000000000000000E8
:1058C00000000000BC0718011001B000600060007B
:1058D000E0009000080108039E070000000000009F
:1058E00000000000000000000000000000000000B8
:1058F000000000009E0708010801080190009000C8
:10590000B0006000600060002000200024001C0047
:105910000000000000000000000000000000000087
:1059200000000000FC018401C4004400600020006D
:105930003000180208020C03FC0100000000000007
:1059400000000000000380008000800080008000D4
:105950008000800080004000200040008000800027
:105960008000800080008000800080000003000034
:105970004000400040004000400040004000400027
:105980004000400040004000400040004000400017
:105990004000400040004000400040004000400007
:1059A000000000000C00100010001000100010009B
:1059B0001000100010002000400020001000100017
:1059C0001000100010001000100010000C0000006B
:1059D00000001C002204C20480030000000000003C
:1059E00000000000000000000000000000000000B7
:1059F00000000000000000000000000000000000A7
:105A0000CAE4840044012F02D20505007F04540536
:105A10007C055705740554045406B3F62000220291
:105A200022022202FE03200020002104210421047E
:105A3000FF070004D7B48400840285048600F407BD
:105A40008400440146014501240224021404CCAC24
:105A500020002000FF07500088002401430620009A
:105A60004A024A040905F001C6B5C8073A018A008E
:105A7000CA077F0448054A056A05510508018402E2
:105A80004304C2CA2000FF0710008A027C012000E4
:105A90005401FA022000FF0720002000D5BC20009E
:105AA00020002000E00720002000FE030202020286
:105AB0000202FE030202BFD510002000FF07890486
:105AC000040102020000FE03200020002000FF0766
:105AD000B1C842004200420442025E01C2004200DC
